:020000040800F2
:20000000F0FF00108524050825BA04085DE2000825250508252505082525050800000000F4
:2000200000000000000000000000000029BA04082DBA04080000000031BA04088DA30008AF
:2000400025250508252505082525050825250508252505082525050831BA000855BA00088C
:2000600079BA00089DBA0008C1BA000821B5000835B5000849B500085DB5000871B5000845
:2000800085B5000899B500082525050825250508252505082525050825250508E5BA00086E
:2000A00029CD000889CC000839CD000879CC0008B1CC0008C1CC0008D1CC0008BDAE000858
:2000C000D9C30008C5AE0008DDC300082525050825250508057C0408057D04082D7E0408D9
:2000E00021BB000825250508D9EA040849CD000801CD000859CD0008F1CC0008ADB50008A5
:200100002525050825250508E1CC000825250508557F04087D80040825250508252505088E
:20012000C1B50008D5B50008E9B50008FDB5000811B600082525050825250508252505087B
:2001400025250508252505082525050835BA040825B6000839B600084DB60008A581040888
:20016000CDAE0008E1C3000825250508252505082525050825250508252505082525050846
:200180002525050825250508FFFFFFFFFFFFFFFFFFFFFFFFFFFFFFFFFFFFFFFFFFFFFFFFC9
:2001A000FFFFFFFFFFFFFFFFFFFFFFFFFFFFFFFFFFFFFFFFFFFFFFFFFFFFFFFFFFFFFFFF5F
:2001C000FFFFFFFFFFFFFFFFFFFFFFFFFFFFFFFFFFFFFFFFFFFFFFFFFFFFFFFFFFFFFFFF3F
:2001E000FFFFFFFFFFFFFFFFFFFFFFFFFFFFFFFFFFFFFFFFFFFFFFFFFFFFFFFFFFFFFFFF1F
:20020000FFFFFFFFFFFFFFFFFFFFFFFFFFFFFFFFFFFFFFFFFFFFFFFFFFFFFFFFFFFFFFFFFE
:20400000B2BE0C001D0200000000000000008600040000000000000000000000000000007B
:20402000000000000000000000000000000000000000000000000000000000000000000080
:20404000000000000000000000000000000000000000000000000000000000000000000060
:20406000000000000000000000000000000000000000000000000000000000000000000040
:2040800000000000000000000000000000000000000000000C00F7010000290100000000F2
:2040A00016001C0201000002011400003404000000008C0A2F000E0026000300010000017E
:2040C000000000000A00FA0100003C0300000A000C020000012C0200170012000400000028
:2040E00000010000054634303500000800000043000302010000000000000000000000008A
:2041000000000000000000000000000000000000000000000000000000000000000000009F
:204120000000000000000000000000000000000000011A00370008000F0000000A00EE021C
:204140001E00EE0214009600020800140C00140002000300000000001200F6010300000058
:20416000000001000000020200000C00F80104000201F401140018000602010026270000B7
:2041800020030000000020030000000020030E000500040000000000020100000A0013027D
:2041A0000000000001001800FD01000019123A1000361A133B114237000000000000150036
:2041C00008020100151617FFFF2D3233FFFF232425FFFF2C0006000300E00107000000007D
:2041E0000021202A2B000000000000000001020304050607002602D007E803A8070E004521
:2042000000160200002102002002002A01002B01013902FF3802FF1801012902FF1302FF1E
:204220002801FF2F03FF000000000000000000000000000000000000000000000000000025
:20424000000000005E000D000100010000001405040500000000010000003305040500008D
:2042600000000000000034050405000000000000000035050405000000000200000036057C
:204280000405000000000004000037050405000000004000000038050405000000006400E2
:2042A000520042001A0200000000000000000000000000000000000000000000000000004E
:2042C0000000000000000000535042450053504545445942454546343035563500000000B4
:2042E00000000100F6002102000000000000000000000000000000000000000000000000A4
:2043000000000000000000000000000000000000000000000000000000000000000000009D
:2043200000000000000000000000000000000000000000000000000000000000000000007D
:2043400000000000000000000000000000000000000000000000000000000000000000005D
:2043600000000000000000000000000000000000FFFF000000FF0F0000FF320000FF64009D
:2043800000FF730000FF7D0000FFB40000FFD20000FFF00000FF0E0100FF2C0100FF4A0138
:2043A00000FF0000000000000000010B020D0A03050B030D0A030A0B040D0A03080B040D52
:2043C0000A03070B030D0A03000000000000060A0100000203060000000316002C00000040
:2043E000E803D007E803D007E803D007E803D007320125000200000000000000000000005B
:2044000000000000000000000000000000000000000000000000000000000000000000009C
:2044200000000000000000000000000000000000000000000000000000000000000000007C
:2044400000000000000000000000000000000000000000000000000000000000000000005C
:2044600000000000000000000000000000000000000000000000000000000000000000003C
:2044800000000000000000000000000000000000000000000000000000000000000000001C
:2044A0000000000000000000000000000000000000000000000000000000000000000000FC
:2044C0000000000000000000000000000000000000000000000000000000000000000000DC
:2044E0000000000000000000000000000000000000000000000000000000000000000000BC
:2045000000000000000000000000000000000000000000000000000000000000000000009B
:2045200000002A002B000000001E001E001E0005011E011E011E011E011E011E011E011ECF
:20454000011E011E011E011E011E011E0A0027000000200300000A001300010008044110D2
:2045600086000C0007003200030707070000004343430064CE07CE07CE07000000000000AC
:204580000000000032003200030707070000004343430064CE07CE07CE07000000000000F3
:2045A0000000000032003200030707070000004343430064CE07CE07CE07000000000000D3
:2045C0000000000032003200030707070000004343430064CE07CE07CE07000000000000B3
:2045E000000000003200480031020100AE014A015E019A010000000A00000000000000000F
:204600000000AE014A015E019A010000000A00000000000000000000AE014A015E019A01A8
:204620000000000A0000000000000000000022012202000000000000000000000000000029
:2046400000000000000000000000000000000000000000000000000000000000000000005A
:2046600000000000000000000000000000000000000000000000000000000000000000003A
:2046800000000000000000000000000000000000000000000000000000000000000000001A
:2046A0000000000000000000000000000000000000000000000042414E4431202020004212
:2046C000414E44322020200042414E44332020200042414E44342020200042414E443520BA
:2046E00020200042414E44362020200042414E44372020200042414E443820202000313213
:204700003334353637383100320033003400350036003700380000000000000000000000B4
:20472000000000000000000000000000000000004C5630004C5631004C5632004C5633002B
:204740004C5634004C5635004C5636004C56370010000301010000000000000000000000E6
:204760002A000A000A0030000000FA00F40100000000000000000000020000029E077D00B6
:20478000FA00F4010000050164011E00FE0100000131010030010135010000010100000005
:2047A0000000000001FFFF007E00290005000000000000000000000000000000000000004E
:2047C0000000000000000000000000000000000000000000000000000000000000000000D9
:2047E0000000000000000000000000000000000000000000000000000000000000000000B9
:20480000000000000000000000000000000000000000000000000000000000000000000098
:20482000000000000000120001000200E80364000F3C000105001E003A001800040000014E
:204840000302040506070C000100000001006400DC051A046C070019750343080E0000016E
:204860000000001E1E1E7D010100000000000000000016002300020019000000000000000B
:20488000000000000000000014000B0004002C016401010100011E0A000002009E030E0087
:2048A0000B0064004B00000000002D501E00780000002F5422007D0000002D500000780014
:2048C0000000324B4B003200000028000000000000000050F4019001013C870050000000CC
:2048E0000000320090015E01F40100000A64C8009001960000050F00010F0114004B32008E
:2049000000004B009600011400280100C800282E00002364000000000000000000000032A1
:20492000323296000141070F5A0F64050000026464646464646401646405640141004605D6
:204940005064F40114001A0400190F320000000000000000000000000000000000001E0004
:20496000C80046001400E80332007201E803E803D007D809000000000000031EE600E6000A
:20498000B40002007017140064004B00000000002D501E00780000002F5422007D000000E2
:2049A0002D50000078000000324B4B003200000028000000000000000050F4019001013CCD
:2049C0008700500000000000320090015E01F40100000A64C8009001960000050F00010F68
:2049E0000114004B320000004B009600011400280100C800282E0000236400000000000061
:204A0000000000000032323296000141070F5A0F64050000026464646464646401646405B4
:204A20006401410046055064F40114001A0400190F32000000000000000000000000000050
:204A4000000000001E00C80046001400E80332007201E803E803D007D809000000000000F8
:204A6000031EE600E600B40002007017140064004B00000000002D501E00780000002F54B3
:204A800022007D0000002D50000078000000324B4B00320000002800000000000000005010
:204AA000F4019001013C8700500000000000320090015E01F40100000A64C80090019600E8
:204AC00000050F00010F0114004B320000004B009600011400280100C800282E000023645C
:204AE000000000000000000000000032323296000141070F5A0F640500000264646464646A
:204B00006464016464056401410046055064F40114001A0400190F320000000000000000D9
:204B2000000000000000000000001E00C80046001400E80332007201E803E803D007D80917
:204B4000000000000000031EE600E600B40002007017140064004B00000000002D501E00CD
:204B6000780000002F5422007D0000002D50000078000000324B4B00320000002800000084
:204B8000000000000050F4019001013C8700500000000000320090015E01F40100000A64A6
:204BA000C8009001960000050F00010F0114004B320000004B009600011400280100C80069
:204BC000282E00002364000000000000000000000032323296000141070F5A0F64050000A2
:204BE0000264646464646464016464056401410046055064F40114001A0400190F32000003
:204C0000000000000000000000000000000000001E00C80046001400E80332007201E803D9
:204C2000E803D007D809000000000000031EE600E600B40002007017140054001E0004001D
:204C40000105010001070A000000000000000000000000000000000000000000000000003B
:204C6000000000000000000000000000000000000000000000000000000000000000000034
:204C800000000000000000000000000000001E0023020400000000000000000000000000CD
:204CA000FF00000000000000140000000E003002010000000000000064000E0038000700EF
:204CC00000642C012C01900160003C000A000400FB044C046C071E1E1E1E1E1E1E1E1E1EED
:204CE0000A323200F401F401C80032003200DC00B801FA00FA000C00C409DC0500003200BB
:204D00000A001E002C010803E803D007320A0100C8000A32640001001400E803102710275E
:204D200008050000000000000900190001000000000A0028020000000000000A00270200DC
:204D4000000000000014001A0000007E05EA05B4053200E803D007000012002002060003C9
:204D600064646464003200F401960008000E02000000006C002F0002000000000000000031
:204D8000000000000000000000000000000000000000000000000000000000000000000013
:204DA0000000000000000000000000000000000000000000000000000000000000000000F3
:204DC0000000000000000000000000000000000000000000000000000000000000000007CC
:204DE000002D020000000A00120201002829FFFF0A0001010000000000000A0000010000FF
:204E0000240000000900020100006E0A014600290200000000000000000000000000000078
:204E2000000000000000000000000000000000000000000000000000000000000000000072
:204E40000000000000000000000000000000000000000007000F020000000E002A020100FF
:204E6000640058022C01030016001B000300011800020301F40132000164000078001000DD
:204E800016000300C4090000190200000000090010000200000500120002000100000000DC
:204EA0000000000000000000000A0005020000000000000E002C020200190019000A000067
:204EC0000016001B02000006000000E803000000000000000000000800040201000000326D
:204EE000001F00060000000000000100010005000001020300000000000000000000000080
:204F00000000000000008017002302010202020100070009020000000A00F90100001F0098
:204F2000000009000202000000000012001F020000FFFFFFFFFFFFFFFFFFFFFFFF0E00111E
:204F40000200003D3E0000010101011000010200000000000002000000000000005DD3008B
:204F6000FFFFFFFFFFFFFFFFFFFFFFFFFFFFFFFFFFFFFFFFFFFFFFFFFFFFFFFFFFFFFFFF51
:204F8000FFFFFFFFFFFFFFFFFFFFFFFFFFFFFFFFFFFFFFFFFFFFFFFFFFFFFFFFFFFFFFFF31
:204FA000FFFFFFFFFFFFFFFFFFFFFFFFFFFFFFFFFFFFFFFFFFFFFFFFFFFFFFFFFFFFFFFF11
:204FC000FFFFFFFFFFFFFFFFFFFFFFFFFFFFFFFFFFFFFFFFFFFFFFFFFFFFFFFFFFFFFFFFF1
:20800000074BD0F8EC105B68D0F8F8205B1A9A42B8BFC0F8F830012380F824310020704737
:20802000001000E02C22C24B00FB02F22DE9F04103EB020E9A585268918ACD0700F187802E
:208040005FFA81FC1CF0020F4ED0BFF35F8F9EF81C100129CCB200F0F3804100148BBFF310
:208060005F8F4FF02C0C0CFB003C9CF81C40022C00F013814FF02C0C0CFB003C9CF81C400C
:20808000032C09D19CF81E4034B10C181C4494F88450002D40F06981B2F804C01FFA8CFCC6
:2080A0004CF4806CA2F804C001EB000C9C449CF986E04FF02C0C0CFB003C9CF81CC00CF13C
:2080C000010CF4450ED101441944002481F8844091F88510002940F0D9802C2202FB00332A
:2080E00000225A76BDE8F0811CF0040F66D18CB200EB40015E181CF0400C96F986804FEA1C
:20810000400100F0DF80158ADEF82470EDB207F808505FFA88FC0CF1010464B29EF81C70B9
:2081200086F88640E51CAF42A64600F049812C2505FB00352D7FAC42BBD10C180CF1020C88
:208140001C444FFA8CFC84F886C0E646B1E7118821F400610904090C1180118889B241F49D
:208160008061118000EB400C9C449EF81E40002541008CF88650002C50D09CF88440002CF2
:2081800048D001441944012481F884402C2101FB0031097F022904D1118889B241F4006157
:2081A00011802C2101FB0031897E41F0010111822C2202FB00331B7FBDE8F08100EB40048A
:2081C0001C449EF81E504FF0010C410084F885C0002D7BD094F88450002D7CD12C2404FB4C
:2081E0000034647F002C00F0C3801488A4B244F4007414800C181C4494F886E00EF1010E53
:208200004FFA8EFE84F886E0B2F800C01CF4807FFAD14EE79EF81B40FF2CB2D02C2404FB41
:20822000003494F81AC00CF0FE0CA2F810C0E27EFF2ABDD001441944FF2281F88620B7E79E
:208240009EF81E1000293FF408AF00EB40051D44410095F88460002E3FF400AF168826F43C
:2082600080663604360C1680BFF35F8F85F88540148B148895F986E0A4B244F4007414805F
:208280009488A4B244F48064948012E7918821F440710904090C91801FE79CF81E40002C0D
:2082A0003FF4E8AE0C181C4494F88450002D3FF4E1AE94F986E0148824F480642404240C3F
:2082C00014804BE0240635D4C646F2E694F88440002C83D089E79EF81C50DEF82460022DFE
:2082E000158852D925F480652D042D0C1580158A94F986C0EDB206F80C501588DEF8247047
:20830000ADB245F4007515805FFA8CFC168A0CF101056DB2F6B27E550CF1020E4FFA8EFEBB
:2083200084F886E09488A4B244F4806494806BE7F80C0020B8F1FF3F49D0DEF8204014F801
:208340000850EDB215829EF81C5008F1010464B2A54286F88640A6467FF4ABAE948824F462
:2083600080642404240C9480A3E694F986E0F5E71488A4B244F4807414800C181C440125F9
:2083800094F986E084F884503EE7ADB245F400751580158A94F986C0EDB206F80C505FFA0F
:2083A0008CFC168ADEF824700CF101056DB20CF1030EF6B24FFA8EFE7E5584F886E023E7BF
:2083C000958825F480652D042D0C9580AFE69EF81B1086F886C0C9B211829EF81E1021B93D
:2083E0009EF81C1000297FF4E3AE918821F480610904090C9180DBE610B404698269E46823
:208400004168146000234024C2E90234446993630C31C2E90433C2E90633C2E90833C2E9A0
:208420000A33C2E90C33516094B1C269E46893634FF48030C2E90041C2E90233C2E9043311
:20844000C2E90633C2E90833C2E90A03C2E90C335DF8044B704700BFD0E9001300221A602E
:20846000037D1F2B07D9203B202202FA03F343F01803CB607047202202FA03F343F0180311
:208480008B6070471B4B016803F57D7C02E02C3363452CD01A688A42F9D170B593F804E0E9
:2084A000427996450BD02C33634505D01A688A42F4D02C336345F9D14FF0FF3070BD9E460D
:2084C0008468DEF80C50A5424FF0000208D00132032A0EF10C0EE6D0DEF80C50A542F6D16F
:2084E000DEF81050C668B542F1D150B270BD4FF0FF307047E44F0508002A4FEA014C30B536
:2085000003460ABFE6468E468C4600F1C005002419689A6841EA0C0142EA0E029A60C3E900
:2085200000140C33AB42F3D1D0F8C030C0F8C44043EA0E03C0F8C030C0F8C84030BD00BF71
:20854000C3691969B3F80CC00A6830B49C6822F0010224680A60A28992B222EA0C02A281E5
:20856000027D00681F2A06D94568203A082494402C4245D0FEE70568082494402C42F9D1D8
:20858000202404FA02F28260264A1278002A35D01A7E012A39D0D3F8F4200132C3F8F420ED
:2085A000EFF31181502282F3128858685C6C026822EA04029C6C2243C9B2026081F311886B
:2085C000D3E90C401A6999681D6C096814605061D3E90E40546090600024B3F8A800D56096
:2085E0004C62C86210680124204310601C7683F8F1408A899B8913439BB28B8130BC70476C
:20860000202404FA02F2C260BEE7002283F8F120D3F8F8000A68013022F00102C3F8F80081
:208620000A60EBE7040000102DE9F041204C6568002D33DD002304F1080218461F46012621
:2086400004EB032C01339CF8F91001F0FF0E59B9AB4202F58072F3D120B1164B93F88D2017
:20866000542A1ED0BDE8F0819168B2F80C807046D1F800E0BEF80C1089B221EA0801AEF823
:208680000C10D2F810E0DEF8001021F00101CEF800108CF8F97082F8F260D9E70020BDE8F7
:2086A000F081B3F894200132A3F89420BDE8F08104000010F80C002010B40C4C6368002B08
:2086C00011DD002004F1080C0146DCF8A03003F1C00259600C339342FBD163680130834288
:2086E0000CF5807CF1DC5DF8044B704704000010F0B5414C04EB401393F8243403B9F0BD81
:208700003E4B93F8A05093F8A12095424FEA401C0CD002EB420E03EBCE0E9EF8A460771E8B
:20872000012F4FEA420E58D9032E51D004EB0C00A0F80814EFF31182902383F3128890F88E
:208740000A34B0F8081443EA41030021D2B29BB280F80A1482F311882178D0F820441A0928
:2087600082EA13225A40C9B1D0F80C14D4F8A040D2431B019BB202F00F02012088401343F0
:2087800004F1C0015A0013F4004F93B202D16268024362600C34A142F4D1F0BDD0F80C140D
:2087A000D4F8A0401B0110319BB202F00F0201208840134304F1C0015A0013F4004F93B276
:2087C00002D16268024362600C34A142F4D1F0BD561C06F00306AE42A8D0964403EBCE03EE
:2087E000184490F8B1100029A0D004EB0C03012283F80A249AE700BF04000010F80C0020F9
:20880000704700BF024B03EB401393F825047047040000104368B0F8502010B41A83EFF3CF
:208820001182502383F312884168446C0B6823EA0403C46C2343D2B20B6082F31188D0E9F6
:2088400007418268036912681C605961D0E909415C60C46A9960B0F86010DC600023D1623A
:208860005DF8044B0376704710B4037D02681F2B09D95468203B202101FA03F31C4215D1BD
:208880005DF8044B70471468202101FA03F31C42F6D00D494068002481F8044101685DF80D
:2088A000044B21F0010101609360704706494068002481F8044101685DF8044B21F0010152
:2088C0000160D360704700BFF80C0020122301480B80704788010020042301480B8070474F
:2088E0009C0100201C48D0F8103AD0F8182A10B59B184FF01A040C8001D1184810BD174A7A
:20890000D0F8140A02F1100411464FF0000E4FEA137CB3F1204F34BF0CF1300C0CF1370C7F
:2089200081F802C081F803E002318C424FEA0313EDD102F108040021030FB0F1204F34BF5D
:20894000303337339374D174023294424FEA0010F2D1024810BD00BF0070FF1FA0010020C3
:20896000426A806A131A58425841704790F84F3830B53BB990F84D1890F84E380124DAB2B6
:20898000914200D830BDB0F8565804FA03F22A43A0F856280133F2E70379024613F001009E
:2089A00005D0D369D068116A01385B1A1840704710B50379DB07044601D4002010BDFFF711
:2089C000EBFF0028F9D0236A6269D05C236AE2680133B3FBF2F102FB1133C0B22362EDE790
:2089E00003799B070AD5436A8269D154436A02690133B3FBF2F102FB11334362704770478C
:208A0000017170470379024613F0020007D0536A1069916A01385B1A0340DBB2C01A70474D
:208A200082B01D4B1D49002201920193019B04330193019B1A688B6803F00C03042B02D072
:208A4000082B05D0164A174BC3F8082102B0704748684B68400203F03F0314D44A68104932
:208A6000B1FBF3F3C2F3881203FB02F20B4B5B68C3F3014301335B00B2FBF3F2094BC3F8E0
:208A8000082102B070474968B2FBF3F2C1F3881303FB02F2EAE700BF5028004000380240FE
:208AA0000024F400F80C00204A484B494B4BDFF830C12DE9F04F4FF0010A4FF002094FF0CE
:208AC000040808271026202540244FF0800E30F8022B12F0010F03D01960A3F804A0083382
:208AE00012F0020F03D01960A3F80490083312F0040F03D01960A3F80480083312F0080FD9
:208B000002D019609F80083312F0100F02D019609E80083312F0200F02D019609D80083317
:208B200012F0400F02D019609C80083312F0800F03D01960A3F804E0083312F4807F05D0D1
:208B40004FF4807B1960A3F804B0083312F4007F05D04FF4007B1960A3F804B0083312F4B3
:208B6000806F05D04FF4806B1960A3F804B0083312F4006F05D04FF4006B1960A3F804B040
:208B8000083312F4805F05D04FF4805B1960A3F804B0083312F4005F05D04FF4005B19606E
:208BA000A3F804B0083312F4804F05D04FF4804B1960A3F804B00833D20B04D04FF400423A
:208BC00019609A80083301F5806161457FF47FAFBDE8F08FD853050800000240040E0020D9
:208BE00000180240072809D8054B8C2202FB0033B3F80805B0FA80F0400970470020704734
:208C000004000010072806D8034B8C2202FB0033012283F80A2570470400001070B53F4CBF
:208C20008C2303FB004393F8173503B970BD3C4B93F8A0E093F8A12096450CD002EB420CB4
:208C400003EBCC0C9CF8A4506E1E012E4FEA420C44D9032D3DD08C2202FB0042A2F8081586
:208C6000EFF31181902383F31288B2F8085592F80A3543EA45030025C9B29BB282F80A55B2
:208C800081F311881A09217882EA13225A4001B1D2431B019BB294F86C19D4F8685902F010
:208CA0000F021A438C2303FB004431BB0121D4F89005A847D4F88C15B4F814558A8AD4F895
:208CC00088352A438A8258601A6842F001021A6070BD551C05F003057545BCD0944403EBCE
:208CE000CC03034493F8B1100029B4D08C2303FB0043012283F80A25ADE7D4F81035D4F837
:208D00008C155B79086903F0FC0318440421A847D4F88C358000988170BD00BF04000010E5
:208D2000F80C002010B584464FEA810E102312F4004F14BF0E2407245200013BCCF800406E
:208D400092B2F444F3D100EB81128C01035142F82130122010BD00BF10B584464FEA810ED4
:208D60000424130B03EB430318331201013CCCF8003092B2F444F4D100EB01130A018450CB
:208D800043F82140062010BD704700BF704700BF034B00EB400003EBC00393F88109704762
:208DA00004000010064B93F8302A824283BF00EB400003EBC003D3F884090020704700BF99
:208DC000040000102AE700BF072808D8044B03EB401393F8242412B1012283F80A247047F7
:208DE00004000010072808D8054B03EB4013B3F80804B0FA80F0400970470020704700BF58
:208E000004000010054B93F8302A824286BF03EB4013D3F814040020704700BF0400001032
:208E20001D4B93F8342AAAB3D3F8701909B100200860012A2ED0D3F8881909B10020086017
:208E4000022A27D0D3F8A01909B100200860032A20D0D3F8B81909B100200860042A19D017
:208E6000D3F8D01909B100200860052A12D0D3F8E81909B100200860062A0BD0D3F8001AED
:208E800009B100200860072A04D0D3F8183A0BB100221A60704700BF040000101D4B93F899
:208EA000342AAAB3D3F8701909B100200860012A2ED0D3F8881909B100200860022A27D067
:208EC000D3F8A01909B100200860032A20D0D3F8B81909B100200860042A19D0D3F8D01906
:208EE00009B100200860052A12D0D3F8E81909B100200860062A0BD0D3F8001A09B1002047
:208F00000860072A04D0D3F8183A0BB100221A60704700BF04000010B84B93F83230002BCA
:208F200040F06A81B64B93F8342A002A00F0648193F8801970B400294FD1D3F87019002028
:208F4000012A086047D993F8981900296BD1D3F888190020022A08603DD993F8B01900290A
:208F600040F0D280D3F8A0190020032A086032D993F8C819002940F0EF80D3F8B81900203B
:208F8000042A086027D993F8E019002940F00C81D3F8D0190020052A08601CD993F8F819D5
:208FA000002940F03381D3F8E8190020062A086011D993F8101A00295BD1D3F8001A002027
:208FC000072A086007D993F8282A002A77D1D3F8183A00221A6070BC7047D3F87409810A5A
:208FE000A1F580115229A8D8864C214491F800140D29A2D8EFF31184502282F31288824D04
:20900000466A828A4FF02C0C0CFB015192B2013642F00102C1F83464E4B2828284F3118819
:2090200093F8342A89E7D3F88C09810AA1F5801152298CD8734C214491F800140D2986D891
:20904000EFF31184502282F312886F4D466A828A4FF02C0C0CFB015192B2013642F0010220
:20906000C1F83464E4B2828284F3118893F8342A6DE7D3F8040A810AA1F5801152299CD83E
:20908000604C214491F800140D2996D8EFF31184502282F312885C4D466A828A4FF02C0CAA
:2090A0000CFB015192B2013642F00102C1F83464E4B2828284F3118893F8342A7DE7D3F894
:2090C0001C1A8A0AA2F58012522A80D84D48024492F800040D283FF67AAFEFF311845022E4
:2090E00082F31288484D4E6A8A8A4FF02C0C0CFB005092B2013642F00102C0F83464E4B29C
:209100008A8284F3118862E7D3F8A409810AA1F5801152293FF626AF3A4C214491F8006463
:209120000D2E3FF61FAFEFF31181502282F31288354C456A828A4FF02C0C0CFB064492B2B4
:20914000013542F00102C4F83454C9B2828281F3118893F8342A05E7D3F8BC09810AA1F54E
:20916000801152293FF609AF264C214491F800140D293FF602AFEFF31184502282F312886E
:20918000214D466A828A4FF02C0C0CFB015192B2013642F00102C1F83464E4B2828284F3C3
:2091A000118893F8342AE8E6D3F8D409810AA1F5801152293FF6ECAE124C214491F800145B
:2091C0000D293FF6E5AEEFF31184502282F312880D4D466A828A4FF02C0C0CFB015192B26F
:2091E000013642F00102C1F83464E4B2828284F3118893F8342ACBE6704700BF880100204F
:2092000004000010E44F0508F80C0020D3F8EC09810AA1F5801152293FF6C5AE0F4C214481
:2092200091F800640D2E3FF6BEAEEFF31181502282F312880A4C456A828A4FF02C0C0CFBE1
:20924000064492B2013542F00102C4F83454C9B2828281F3118893F8342AA4E6E44F050892
:20926000F80C002000EE100AB8EE400A704700BFBCEEC00A10EE103A98B27047012380F803
:2092800029300020704700BF08B50346426AC06B996B02445A6201B18847002008BD00BFD7
:2092A000036B1B681B6A5B685B78024613F0010008BF82F829007047F0B5224C224A234B48
:2092C00095B0054604F13C00CDE90002049304F140000023CDE90503CDE90E331C4A099270
:2092E0000B9304F134021093139311932B6B95F828700A921868012302228DF80C3007933E
:209300008DF820308DF834308DF848303B1D02920E460C9347F09EFC97B1330E84F8353078
:209320003634320C330A22706370A670286B69463DF0A2FE2B6B186847F08CFC15B0F0BD77
:209340003534EEE7880100206C130020A19200087D92000810B5044694B050220649684673
:209360004BF0E2FB206B69463DF086FE236B186847F070FC14B010BD385405088263416287
:20938000704700BF2DE9F0410446006B00681E460F46904647F05EFC94F82830606A002BFA
:2093A0003ED0284D030E85F84530052205F146039870EA67020C000A58701A703B68C5F89E
:2093C00088300020D8F80030C5F89030012EE363C5F8A00029D0022E20D1D8F80420C5F89B
:2093E0009800796885F89400C5F89C1013441649C5F8A4200120E36385F8A800C5F8AC103E
:20940000124B94F82920206BA3F11401002A08BF19463DF031FEA36B7BB1E06BBDE8F0819F
:209420000B4B0422A3F14505C2E7074B85F89460C5E92630C5F8A400E2E7236B186847F0F3
:2094400009FCEAE78801002089920008E8010020CD010020704700BF00B583B041620192DF
:20946000049A0093826301236A4601A9FFF78AFF03B05DF804FB00BF043070470D4B93F845
:209480007C26D3F878160244D2B283F87C2693F87C2601441206C3F8781605D593F87C2610
:2094A00082F0800283F87C26034B012283F8C420704700BFF80C0020880100202DE9F0473B
:2094C000154FD7F88056ED0A20D00026B14607F2C4687419D7F884361048D3F828A0C7F89A
:2094E000BC9604EBD474641010234246E102D0470F280BDD0A4B03F1100153F8042B013294
:2095000007D18B42F9D12546B542E2DCE802BDE8F087661CF8E700BFF80C00207C130020C3
:20952000BC1300201A4BD3F8D416D3F8D8268A1A322A05DCD3F8EC268A1A002A0FDC70472B
:2095400093F8DC26D3F8E01602F0010219B108688988B2B901830022C3F8EC267047D3F81D
:20956000E02682B11068928810B444693231224218BF42835DF8044B08BF0283C3F8EC169F
:2095800070474183E7E73231C3F8EC16704700BFF80C0020064AD2F8E0363BB192F8DC1630
:2095A0009A881B68C90754BF1A835A8300207047F80C00204FF40070034B1060D3F8F83644
:2095C0000B600020704700BFF80C00200020704701207047012070470020704730B585B0EE
:2095E000684641F029FF1048104AD0F8FC10009B0F4D41F08071C0F8FC10002400F1C840E4
:20960000C2F8B05FA0F5650054601168094CA0F67D60A0FB030341F001019B0CC4F82837FC
:20962000116005B030BD00BF00ED00E0001000E055CEACC5F80C00202DE9F84F0130884C81
:20964000884D01F1FF385FFA80FB1026012745F0D1FA4FF4FA794FF0E0214FF47A7C6B68D8
:20966000C3F30803002B40F0D280EFF31183002B40F0CD80D4F8D4368869D4F8D4269342FC
:20968000F8D1D4F830279042F4D8D4F828270CFB02FEAEEB000EBEFBF2FE0CFB03EE6B6803
:2096A000C3F30803002B40F09280EFF31183002B40F08D80D4F8D4368869D4F8D42693423C
:2096C000F8D1D4F830279042F4D8D4F828A70CFB0AF2121AB2FBFAF20CFB0323A3EB0E03D1
:2096E000B3F57A7FDBD3B9F10109B8D158464FF47A7945F033FF4FF0E021CC466B68C3F3C8
:209700000803002B40F09780EFF31183002B40F09280D4F8D4368869D4F8D4269342F8D1BE
:20972000D4F830279042F4D8D4F828270CFB02FEAEEB000EBEFBF2FE0CFB03EE6B68C3F375
:20974000080323BBEFF311830BBBD4F8D4368869D4F8D4269342F8D1D4F830279042F4D8F8
:20976000D4F828A70CFB0AF2121AB2FBFAF20CFB0323A3EB0E03B3F57A7FDFD3B9F10109B3
:20978000BCD1B8F10108BFF462AFBDE8F88FEFF3118386F31288D1F818A00A69D20344BF45
:2097A000C4F82C77D1F818A0D4F8D406D4F82C27DBB283F311880244D4F828070CFB00F32D
:2097C000A3EB0A03B3FBF0F30CFB0233D1E7EFF3118386F31288D1F818A00A69D20344BF14
:2097E000C4F82C77D1F818A0D4F8D406D4F82C27DBB283F311880244D4F828070CFB00F3ED
:20980000A3EB0A03B3FBF0F30CFB023366E7EFF3118286F3128888690B69DB0344BFC4F809
:209820002C778869D4F8D436D4F82CE7D2B282F31188734429E7EFF3118286F3128888690D
:209840000B69DB0344BFC4F82C778869D4F8D436D4F82CE7D2B282F31188734464E700BF5B
:20986000F80C002000ED00E02DE9F0411D4CDFF87C801D4F82B004F54075012602E00834E3
:20988000A54224D094F90630002BF8D1206800F13F4303F57E0308EB932393F8A4345A0953
:2098A000032A03F01F0306FA03F317D0042A11D0022A02D17A6C13437B640023A1881A46B4
:2098C000CDE90036083447F04DF9A542DAD102B0BDE8F0813A6B13433B63EEE73A6C13431F
:2098E0003B64EAE7040E002000380240E44F050809494B6C10B5094C43F480434B644022DE
:20990000002104F234704BF067F94FF0FF33C4F87437C4F8773710BD00380240F80C002044
:209920002DE9F0411348144D4FF41A7200214BF053F94FF00008A5F2AC4705F6880440F223
:20994000222655F82810002354F8332091420BD001330E2BF8D1002008F1070846F0C4F979
:20996000B045EED1BDE8F08107EBC30393F8380DF2E700BF04110020905405082DE9F84386
:20998000038AB0F80C801FFA88F818EA030829D005460E464FF00047B8FA88F327FA03F2FF
:2099A000D24391B21B3B298208EA0208042B16D8DFE803F04134271A0300B36A002B47D063
:2099C00003F1FF3900231FFA89F9B362746A34B123682046494698476468002CF8D1B8F1FC
:2099E000000FD9D1BDE8F88370680028F7D00368002BF4D0696B89B29847B8F1000FCBD12B
:209A0000F0E7B0680028EAD00368002BE7D0A96B89B29847B8F1000FBED1E3E7F068002869
:209A2000DDD00368002BDAD0E96B89B29847B8F1000FB1D1D6E730690028D0D00368002BDD
:209A4000CDD0296C89B29847B8F1000FA4D1C9E7EB6A1FFA83F9B9E770B50B4C054607265F
:209A6000013E00D170BD94F900001AF04FF9031E08DBEA1861789171A178E954052BDCBFC8
:209A8000E37813730434EBE7885D050810B5274B93F8A02093F8A1309A4242D1244A92F824
:209AA000F80AF8B192F86C4902F6382300EB4000D2F8382A03EBC000B4B140F20D3C00E0A4
:209AC0001A6899689C894C600C6844F001040C60A2F848C09189183389B241F480718342EC
:209AE0009181EDD110BD1A68118821F0800109041833090C118033F8141CD162118889B2BC
:209B000041F0800111805462B2F80CC033F8041C41EA0C0189B28342918123F8044CE2D123
:209B200010BD47F0E9FF0028B8D110BDF80C00200400001010B5044649F0A8FD81B22046FD
:209B4000BDE81040FEF7D4BD10B5044649F09EFD81B22046BDE81040FFF760B838B50B4DC6
:209B600000EB400005F5176303EBC00393ED027AD3ED037AE7EE007AC4002544B0EE670AD1
:209B800049F084FDD5F87039186038BD040000100A4608B5054920B9054841F0D7FE034842
:209BA00008BD044841F0D2FE004808BD7414002090A80508B8A8050810B5044C04480A467B
:209BC000214641F0C3FE204610BD00BF74140020E0A8050810B5044C04480A46214641F0B4
:209BE000B5FE204610BD00BF74140020F4A8050810B5044C04480A46214641F0A7FE20461B
:209C000010BD00BF7414002000A90508F8B5A0F668042379DB0725D5657994F84C3805F050
:209C200001073D46FBB1D4F848341A68D36A5B08536294F8503823B1B4F85A380133A4F8D8
:209C40005A38606C85F0010144F036F9012384F84F38002384F84D3884F84E38A4F8563855
:209C600084F84C38F8BD94F84F68012E04BF94F84D3884F84E382046FEF778FE4EB90123EB
:209C800084F84F3887EA0301606CBDE8F84044F013B9002384F84F383946F5E7C0690028D1
:209CA00036D003681A6A127B2ABBD3E904125B68496872B110B4546800220A6022609A8824
:209CC0005DF8044B22F003021204120C9A803DF0D9BD1A891206FCD41A89D20709D40022B2
:209CE0000A609A8822F002021204120C9A803DF0C9BD9A89F0E78268002AD6D0116892887A
:209D00000A83D3E904125B684968002AD2D1E0E7704700BFC06900B97047016830B4D1E9C6
:209D200004424B6864687AB15568002222602A609A8822F003021204120C9A800B6A1B7BB6
:209D4000A3B930BC3DF09EBD1A891506FCD41A89D20714D4002222609A8822F0020212044F
:209D6000120C9A800B6A1B7B002BEAD08368002BE7D01A689B88138330BC3DF083BD9A8937
:209D8000E5E700BF38B590F83430012B044608D090F8290008B9012038BD002384F8293091
:209DA00038BD006B03681A7B92B994F82930002BF1D00A4D0A49022305F67C023DF016F9A3
:209DC00095F87D38D84300F0010003F00103E5E71B6A002BE9D0002038BD00BFF80C002011
:209DE0005002002038B5044694F83430012B09D094F8293013B1002384F82930012038BD0E
:209E00001B6A23B1206B03681A7B002AF8D194F82930002BF2D0084D0849022305F67C0255
:209E20003DF0E4F895F87D3803F00102DB0784F82920E3D5D8E700BFF80C0020500200206E
:209E40002DE9F843DDF820800F4615460021202204461E464AF0C0FEB8F1000F0CD0D8F81F
:209E60000030E3811B0C2382D8F80430B8F80A20E3821B0C62822383384648F091FAEB065C
:209E800019D4431EB8B107EB000C01E0013B12D31CF801EDBEF12E0FF8D1C01A421E032AED
:209EA000A8BF0322082B03F10109A8BF08239046B9441A4606E008280246B946A8BF082232
:209EC0004FF000084FF0203339462360636020464AF02AFE04F10800154B23814246494604
:209EE00083704AF021FE611EE21D11F801CFACF16103192B9CBFACF1200C81F800C091424A
:209F0000F3D104F10A0011F8013FA3F16102192A9CBF203B0B708142F5D118232373330C31
:209F2000A382E572099B6683E361BDE8F88300BF202020002DE9F04FDFF84CB4DBF8D406BC
:209F400085B0CBF8D806002B60D013440C46174601F5FE7A99461FE0002F64D0DBF804370D
:209F6000BB4200F0C680DBF80037BB4200F0F880DBF80837DBF80C17BB424BD8B94200F22A
:209F80007081791A204643F049FB01374F4504F500740AF5007A39D0DBF81037BB42DBD8DB
:209FA000DBF82057FB1A296BDA0802328A4203F0070602D3AB6B9A420BD9294610460292C8
:209FC00043F0FCFA029A0546002800F06A81CBF820072B79002B40F01E81D5F82880B8F1C8
:209FE000000F00F057812B6BD21AEB6806EBC20203EB422220462B464FF400710137C047E4
:20A000004F4504F500740AF5007AC5D1002005B0BDE8F08FB942B4D94FF400720021204673
:20A020004AF0DAFDB1E74FF40072394620464AF0D3FD802384F8BE310C2384F8C231DBF854
:20A040000017C54ADBF8F836C4F8C6119142C4F8CA3100F30B81C14AC14D82FB010285FB24
:20A0600001050A44C817C0EB6212C0EB2530BD4D84F8C10185FB0265C2EB82168010891BE6
:20A08000013120F03F0015440843D117C1EBE5110A4484F8BF21B04A84F8C001013B93421F
:20A0A00000F3F080AD4AAE4882FB031280FB03101A44D917C1EB6212C1EB2031A94884F858
:20A0C000C51180FB0250C2EB821589105B1B013321F03F0110441943D317C3EBE0131A446C
:20A0E00084F8C41184F8C3214AF65523A4F8FE314BE74FF0FF3384F8EC3184F8ED3184F8DA
:20A10000EE3184F8EF315223237063706123A37084F8E7314123E37084F8E631722300257A
:20A1200084F8E43184F8E531DBF81837C4F8E8314FF4F0722946201D4AF04EFD552384F83B
:20A14000FE316FF05503C4F8F051C4F8F451C4F8F85184F8FC5184F8FD5184F8FF3114E7DC
:20A160004FF40072002120464AF036FD7E4B03CB45F6EB0323809023C4F80710A370022216
:20A180000821F823C4F80300617322746375DBF8F8362273A27384F82C20DBF800279B1A58
:20A1A0002362DBF80827DBF80C379B1A63620023E372E3736377A377E37784F82D3084F817
:20A1C0002E3084F82F3084F83130684BA361684BC4F842303E232377012384F83030654A27
:20A1E000802384F8403084F846104AF65521A4F8FE1103CA604BC4F84700C4F84B1003CB3D
:20A200001388A4F84F309378C4F85200C4F8561084F85130B9E64FF40072002120464AF03B
:20A22000DBFC002E44D12B6C04F12008002B7BD02B6B52491122CDE900662046FFF700FE00
:20A240002B6C1A6C002A7ED01B6B4D49CDE9006640461122FFF7F4FD04F140084FF4E073BE
:20A260006DE0F91A204643F0D9F98EE6FF2284F8C1214FF6FF72A4F8BF21374A013B93425C
:20A280007FF710AFFF2384F8C5314FF6FF73A4F8C33129E741464FF4007220464AF09CFC2A
:20A2A00073E6384A231F43F8042F9A45FBD16CE6D5E910253301002A43D0023B002D3FF415
:20A2C00064AE013BAD6CF9D1A0464FF40073002D3FF45BAECDE9027A08EB0306A24608E04A
:20A2E0000024CDE900C4FFF7ABFDAD6CBDB1B04515D02C7929682B6B404605F11C0C11221E
:20A3000008F12008002CEBD16A792C6942F02102CDE900C4FFF794FDAD6C002DE7D15446CE
:20A32000029FDDF80CA030E6CDE900663346DBF8FC1608222046FFF783FD4FF4F0736D6CE6
:20A34000C5E7013BBAE7CDE900660D49334640461122FFF775FD7FE7FF03FB0083200882D8
:20A36000975545418180808018A905083F00FF0029940E0D24A9050830A9050810A9050800
:20A3800014A90508DEADBEEFF80C002010B4EFF31182102383F312880A4BD3F8D4164FF0D2
:20A3A000E0200131C3F8D4168169C3F830170024C3F82C470369D3B283F311885DF8044BE4
:20A3C000704700BFF80C002010B4EFF31181102383F312884FF0E022C9B29469136913F42C
:20A3E000803F0D4B1EBF0120C3F82C079469D3F8D406D3F82C2781F31188D3F8281702443D
:20A400004FF47A7000FB01F31B1B5DF8044BB3FBF1F300FB02307047F80C0020264B5B6878
:20A42000C3F3080310B4FBB9EFF31183E3B9234B4FF0E02CD3F8D426DCF81800D3F8D416B2
:20A440008A42F7D1D3F830178842F3D8D3F828474FF47A7101FB04F3181AB0FBF4F05DF850
:20A46000044B01FB02007047EFF31181102383F312884FF0E022C9B29469136913F4803F26
:20A480000E4B1EBF0120C3F82C079469D3F8D406D3F82C2781F31188D3F828174FF47A7370
:20A4A000024403FB01F0001B5DF8044BB0FBF1F003FB0200704700BF00ED00E0F80C0020B5
:20A4C000F8B5027D04681F2A07D96168A2F120052023AB400B4205D1F8BD21682023934095
:20A4E0000B42F9D03B4DC6693B4995F86CC94968C5F8FC1A8C2303FB0653D3F81005D3F814
:20A5000088150768BCF1000F4DD1B3F814050B6823F001030B60BB899BB223EA0003BB81BF
:20A520000B68DB07FCD41F2A49D9203A2023934043F01D03E3602B78002BCDD00B6823F094
:20A54000D0030B608C2303FB0653012283F85C25D5F8043B002B38D03B8820498C2202FB82
:20A5600006F69BB243F080034FF0FF3231442E443B803846FA6241F03BF9D6F88835D6F832
:20A58000101516225A601A68096842F001021A608889B6F81435104A03439BB28B81536846
:20A5A000C5F8003BF8BD0069036823F001030360BB8923F480731B041B0CBB81B0E72023F6
:20A5C000934043F01D03A360B5E7FFF727FFC5F8040BC1E704000010001000E0800500108D
:20A5E0002DE9F04FAA4D2B7887B01BB9012007B0BDE8F08FA74BA849D3F8D426A74BA1FB2F
:20A6000002125209A3FB0213DB0803EB8303A2EB430395F8302A029205F60834DAB2059219
:20A6200004EB830705F6E85905F5816B4FF0000A029B9A4564D0DBF8183093F8F220002AA4
:20A6400051D1D3F8E820DBF80410D3F8EC8003920191FFF7E3FE01998E4B039A93F88DE0E1
:20A6600093F87EC80490890001F1085101EB421108F18060393801EB8C13BEF1540F01EB8F
:20A6800080101E4603D1834BA3F896C03346984218D91A68002A48D01A6C002A00F0878183
:20A6A000D3F88020002A00F08581D3F8C02003F58073002AEBD11E46711AB04233464FEA00
:20A6C000A1123AD8BCF1000F04D0724B0CF1FF3C83F87EC8BEF1540F05D16E4AB2F8923063
:20A6E0000133A2F892300AF1010ABAF1080F04F15C0407F15C0709F114090BF1200B97D1AC
:20A700006A680123002A85F8EC3E7FF76FAF644B002103EB022283F8F21003F580739342BF
:20A72000F9D1012007B0BDE8F08F40331E46711AB04233464FEAA112C4D9A8EB02014529F9
:20A740004FF0000828BF45214046019406EB811144469446F04603960DE01A6C002A40F0C7
:20A76000DB80D3F88020002A40F00581D3F8C02003F580732AB9994206D91A68002AECD098
:20A780004033994200F2CC80C646A046B8F1110F019C62469ED9D8F115019BD4414B1E4678
:20A7A000D3F8CC309C4538BF3346049E38BFC3F8CC20384BD3F88038F21A002A1BDB03F517
:20A7C000F42303F590739E4288BF3346314A88BF0533C2F88038334B2E4AD3F8CC30052B6E
:20A7E00086BF053BDBB2002382F87E382D4A4FF0FF33C2F8CC3041B1C8F11408012300FA71
:20A8000001F103FA08F343EA0100274AC0F3C43302EB83031646D3F8BC1D00F01F0302EB93
:20A820008303D3F8BC2D42EA0132C0F3441106EB8101C0F3842306EB8303D1F8BC1DD3F8C6
:20A84000BC3D42EA011141EA032181EA112383EA131303F00F02D5F8F03D0F2A03F1010311
:20A8600024D1B1F5803F21D2BEF1540F4FEA111105D10848B0F890200132A0F89020B1F57F
:20A88000606FC5F8F03D00F09E80A9F80C101FE004000010F80C00201F85EB51CDCCCCCCEC
:20A8A0000C00001088010020E44F0508BEF1540F05D14D49B1F890200132A1F89020C5F883
:20A8C000F03DD5F8EC3D0133C5F8EC3D4FF6FF7194F85830059883420CD0BA6823689B1AD2
:20A8E00023603A6B63689B1A63600023BB603B6384F85800236801332360BB680133BB6089
:20A900004FF6FF7399427FF4EEAE6368013363603B6B01333B63E6E6803399427FF634AFAA
:20A92000039AA3EB020E4FEAAE1E304A0EF1010E82FB0E62A2EBEE72012AB8BF012200FAB6
:20A9400002FE14440120013A904040EA0E009E46DEF800208AB1DEF8402072B3DEF8802055
:20A9600072B3DEF8C0200EF5807E42B17145EFD803937346FFE6C03303E70EF1400E714577
:20A98000F6D9AEEB0303194A9B11013382FB0362A2EBE373012BB8BF012398401C4401221F
:20A9A000013B9A407346039310437346E3E680331E46BCE6C0331E46B9E60EF1800EDEE75C
:20A9C0000EF1C00EDBE7084A92F8A13003EB430302EBC303534493F8B1300D2B7FF455AFA2
:20A9E000802389F81E3073E7F80C002056555555F8B51D4B93F8A02093F8A1309A422ED17B
:20AA00001A4F7D68002D11DD3846002410F8086B16B1037E012B1CD002691368013443F002
:20AA20000103A54200F580701360F1D1FFF7F6FCD7F8F04E002C0BDD0D4A02EBC404116883
:20AA400093888889083203439BB294428B81F6D1F8BD002380F8F030FDF7DCFEDCE747F01C
:20AA60004BF80028CCD1F8BDF80C002004000010F80E00102DE9F8430546FFF7CFFC254EFB
:20AA8000254B044610274FF0E02C4FF47A7E4FF001087268C2F30802E2B9EFF31182CAB9CB
:20AAA000D3F8D426DCF81800D3F8D4168A42F7D1D3F830178842F3D8D3F828970EFB09F168
:20AAC000091AB1FBF9F10EFB0212121BAA42E0D3BDE8F883EFF3118287F31288DCF818003F
:20AAE000DCF81010C90344BFC3F82C87DCF81800D3F8D496D3F82C17D2B282F311884944D7
:20AB0000D3F828970EFB09F2121AB2FBF9F20EFB0122DAE700ED00E0F80C00202DE9F047B8
:20AB20003E4B3F4D471E10264FF0E0204FF47A7C4FF001086A68C2F30802002A59D1EFF3DE
:20AB40001182002A55D1D3F8D4268469D3F8D4168A42F8D1D3F830178C42F4D8D3F8281760
:20AB60000CFB01FEAEEB040EBEFBF1FE0CFB02EE6A68C2F30802FAB9EFF31182E2B9D3F866
:20AB8000D4268469D3F8D4168A42F8D1D3F830178C42F4D8D3F828970CFB09F1091BB1FB7D
:20ABA000F9F10CFB0212A2EB0E02B2F57A7FDFD3013FBFD2BDE8F087EFF3118286F312882C
:20ABC00084690169C90344BFC3F82C878469D3F8D4A6D3F82C17D2B282F31188D3F8289785
:20ABE00051440CFB09F2121BB2FBF9F20CFB0122D9E7EFF3118186F3128884690269D2035B
:20AC000044BFC3F82C878469D3F8D4E6D3F82C27C9B281F311887244A0E700BFF80C00208B
:20AC200000ED00E030B50C4683B00546D8B1036803F13F4303F57E039B0A0C4A134493F8D2
:20AC4000A40445F051F8C4F34112C4F30013CDE90032C4F38103A988286804F0030245F0E8
:20AC600081FF03B030BD4FF0FF33E6E7E44F050800B1D7E7704700BF70B50E4C94F8306AAC
:20AC8000B6B104F58164002504E00135B54204F120040DD0237F002BF7D0E0680028F4D07B
:20ACA000217D0135FFF7BEFFB54204F12004F1D1012070BD04000010F0B5002487B0CDE923
:20ACC0000144CDE903440DF1040CC0E93F44C0E94144C0F80C41054600F5887EBCE80F00CC
:20ACE000AEE80F00CEF8004095F82931234E0594C5F854610BB907B0F0BD1E09013E052E85
:20AD000003F00F032DD81E4F07EB4602B2F8F40340FA03F2D20724D5012202FA03F3013B8F
:20AD2000184037444AF04AF997F83C3E154A2946154D034405EBC3052620E880234641F83B
:20AD40000C2F2846224643F067FD1049AA880868B2FA82F24FF00043D34003430B6007B033
:20AD6000F0BD2946074B41F80C3F00231A46184607B0BDE8F04043F04FBD00BF3B43413B7C
:20AD8000E44F050821B00008040E0020003C014038B50409013C052C1AD80F4D05EB4402FF
:20ADA00000F00F03B2F8F40340FA03F212F0010210D0012202FA03F3013B184025444AF090
:20ADC000FDF895F83C3E054A034402EBC30038BD002038BD104638BDE44F0508040E00206A
:20ADE00008B518F093FF052807D8054BD3F884380344187BBDE80840CAE7002008BD00BFFD
:20AE0000F80C002008B51D20FFF7C2FF10B190F9063053B11E20FFF7BBFF10B190F906306B
:20AE200003B108BD5523C38008BD5523C380F1E708B540F009FE1B20FFF7AAFF08B12923B3
:20AE4000C3801C20FFF7A4FF08B12923C3800A4B93F88D28012A01D0012008BD0748C3F811
:20AE6000900800F120014C3042F026FC044B002083F8230008BD00BFF80C00205802002029
:20AE800000ED00E043680B4A23F0407323F4807343F48073436083681A4042F002028260EB
:20AEA000C36A0139C9B223F4700343EA0153C362704700BFFDF7FFC0704700BF0020FDF7CD
:20AEC000B1B800BF0120FDF7ADB800BF0220FDF7A9B800BF10B1036882881A83704700BF92
:20AEE00030B1036882881B691A4214BF01200020704700BF10B1036882885A83704700BF09
:20AF0000F0B5056890F888606B688488012285F824201A8822F040021204120C1A802A8975
:20AF2000A24255D1017BAA7A8A420BD01A8822F003021204120C1A801A8892B2002944D016
:20AF40001A80A9721A882F7B92B242F040021A802B6A9A6892B34FF0000C2F4C1433E64689
:20AF600053F8101C964401EA040221B1B2F1805F27D06A692AB353F8142C143302EA0401D1
:20AF800012B1B1F1805F1CD053F80C2C0CF1010C002AE5D1AFB1A6B1BCF1010F0AD8BEF10F
:20AFA000070F07D80CEB8C0C4FEA8C022B6A13441B7B33B9BDE8F0403CF03EBB0FB1002EF0
:20AFC000F4D1BDE8F0403CF0B9BD42F00302B7E71A88124922F0380212048B424FEA1242A7
:20AFE00017D001F580618B4213D02146B1F5807FA8BF4FF480710229B8BF022191FAA1F15A
:20B00000B1FA81F1013942EAC10292B21A802C8188E76108EAE700BF0000FFFF0038004081
:20B0200038B52C4AD0F8E8305268D0F8E010044673B1501A83420BDC94F8D830C4F8E02087
:20B04000012B10D0D4F8DC300133C4F8DC3038BDD4F8EC30C4F8E0200B44C4F8E43094F8CC
:20B06000D830012BEED16168201D04F1F005EFF3118C102383F3128863681B6A0BB3D4F851
:20B08000F8302A461BB1D3691432002BFBD10B6A6BB1996839B9934209D0196829B15B6883
:20B0A00099680029F7D01433F3E7C3E900055FFA8CFC8CF31188D4F8DC300133C4F8DC3000
:20B0C00038BD0D625FFA8CFC8CF31188FFF718FFB8E700BF001000E02DE9F041826992F8FC
:20B0E000E430012B8AB005465BD0023B012B54D892F85431D2F89C203B4C63F07F03137057
:20B100008769D7F8A030D7F8108003F1010E0FCCEC46ACE80F00D7F89C30CDE9003E0FCC24
:20B12000ACE80F0094E8030007F110068CE80300EFF31180102383F312883B691B6A002B5E
:20B1400049D0029B6A461BB1D3691432002BFBD1D8F8203073B1996839B993420AD01968DD
:20B1600029B15B6899680029F7D01433F3E71E60C3F804D0C0B280F31188A9690A69136A93
:20B18000002BFCD1D1F8A0305A8852BAEA819A8852BA2A82DB885BBA6B8201200AB0BDE806
:20B1A000F08192F8570192F85431D2F8A0101B1A5B100133DBB201EB430231F813305BBAA0
:20B1C000EB8153885BBA2B82938801205BBA6B820AB0BDE8F081C8F820D0C0B280F311882A
:20B1E0003046FFF78DFEC8E7285E05082DE9F04190F8E430D0F8A050012B8AB0044673D088
:20B2000041D9023B012B6BD890F85531D0F89C206A4E63F07F031370D0F8A030D0F81080D6
:20B2200003F1010E00F110070FCEEC46ACE80F00D4F89C30CDE9003E0FCEACE80F0096E8C7
:20B2400003008CE80300EFF31180102383F3128823691B6A002B00F0A880029B6A461BB151
:20B26000D3691432002BFBD1D8F820302BB3996839B9934221D01968E1B15B68996800299E
:20B28000F7D01433F3E7D0F89C304FF0FF321A605A609A60DA60D0F8E8300522B3F57A7FB2
:20B2A000C0F8F82054D8032380F8E43001200AB0BDE8F0811F60C3F804D0C0B280F3118863
:20B2C0002269136A002BFCD16B885BBAA4F8D030AB885BBAA4F8D230EB885BBAA4F8D430BC
:20B2E00001200AB0BDE8F08190F8571190F8553190F85621D0ED366AD0ED377A5B1A5B10B5
:20B300000133DBB2521A35F8131005EB430349BAA0F8D010598849BAA0F8D2109B8852101C
:20B320000132D2B25BBAA0F8D43035F81230DBBA07EE103AB8EEC77AE7EE267AFDEEE77ABA
:20B3400017EE903AA0F8D63001200AB0BDE8F08103691A7B2AB35B691BB390F8983003B319
:20B3600090F85731D0F89C20C4F8A40063F07F03137090F8571190F85531D0F8A0201048A3
:20B38000C4F80C015B1A07330121C4F80431D4F89C3084F808110A44C4E93F3284F8E41019
:20B3A0009EE7022384F8E4309AE7C8F820D0C0B280F311883846FFF7A3FD81E7285E050895
:20B3C00001800008D3B2012B1DD8104B02EB420210B54FEA820E0EF1080403F5137C02E0B0
:20B3E0001C3363450DD01A788242F9D15A788A42F6D11A59002AF3D00EF1040E03EB0E0087
:20B4000010BD002010BD0020704700BF505E050810B40C4C002304F6940C01E0152B0CD04B
:20B4200003EB430201331CF802108142F6D1144494F996085DF8044B70474FF0FF305DF854
:20B44000044B7047F80C0020D3B2022B22D870B502EB4202104C4FEA820E23460EF10C0522
:20B46000002204E00132172A03F12C0310D01E68B042F7D193F804C08C45F3D15E59002E46
:20B48000F0D02C210EF1080301FB0233E01870BD002070BD00207047E44F0508002839D0AA
:20B4A00030B51D4D90F804C0002305F6940401E0152B2DD003EB43020133A15C6145F7D14B
:20B4C0001544046895F9963890F805E0DAB2022A1ED803EB430311484FEA830C0CF10C05CD
:20B4E0000346002204E00132172A03F12C030FD019688C42F7D119797145F4D15959002988
:20B50000F1D02C210CF1080301FB0233184430BD002030BD704700BFF80C0020E44F0508B4
:20B520000348D0F8483113B100F59C7018477047880100200348D0F8743113B100F5B27068
:20B5400018477047880100200348D0F8A03113B100F5C87018477047880100200348D0F885
:20B56000CC3113B100F5DE7018477047880100200348D0F8F83113B100F5F4701847704799
:20B58000880100200348D0F8243213B100F5057018477047880100200348D0F8503213B153
:20B5A00000F5107018477047880100200348D0F87C3213B100F51B70184770478801002093
:20B5C0000348D0F8A83213B100F5267018477047880100200348D0F8D43213B100F53170FD
:20B5E00018477047880100200348D0F8003313B100F53C7018477047880100200348D0F80F
:20B600002C3313B100F5477018477047880100200348D0F8583313B100F55270184770476D
:20B62000880100200348D0F8843313B100F55D7018477047880100200348D0F8B03313B198
:20B6400000F5687018477047880100200348D0F8DC3313B100F573701847704788010020E1
:20B66000094B01382C2202FB0033084AD3F838310748116B834214BF4FF480034FF40013BA
:20B680000B431363704700BF88010020003802400060024070B53E4C3E4D01384FF02C0CC1
:20B6A0000CFB004C9646DCF838613B4AAE4214BF4FF480054FF40015166B35431563CCF851
:20B6C000543102F52052DCF83C31CCF84811103293423ED002F5806293423AD0A2F57A72BE
:20B6E000934248D002F58062934244D0A2F57A72934242D002F5806293423ED0A2F57A72F2
:20B70000934236D002F58062934232D0A2F57A72934234D002F58062934230D0A2F57A7211
:20B7200093422ED002F5806293422AD0A2F57A72934228D002F58062934224D0A2F57A7219
:20B74000934222D0154D02F58062934218BF002500E0134D2C2303FB0044CEF3011294F8E5
:20B760005001C4F85C51CEF38711BDE8704045F0D5B90C4DEEE70C4DECE70C4DEAE70C4DC1
:20B78000E8E70C4DE6E70C4DE4E7044DE2E700BF880100200060024000380240008000284A
:20B7A000208000100080001800880010008020102080002000880020008020202DE9F04F7C
:20B7C000934A92F8E538012B85B021D0022B15D0002300938F4F4FF0000807F1780A3B7879
:20B7E000022B17D008F10108B8F1030F07F128070AF1050AF3D105B0BDE8F08F92F8DA380E
:20B8000033B192F8D638083B18BF01230093E1E70093DFE79AF903307F4D0297591C15BF46
:20B82000DBB200239B464FF0010B1E46DAB2012A00F2DB8006EB460189007300774C019339
:20B8400008315FFA88F703E01C34AC4200F0CD802378002BF8D16378BB42F5D1605800286C
:20B86000F2D010F017FB009B814623B1A0F10901072940F2BF807A1CD2B21421484610F0A5
:20B88000F3FA002800F0B180DDE90137334404EB830409F1FF33E068614C59424FF02C025E
:20B8A00003FB02F201F0070103F0070358BF4B42A11804F59C742244C1F844013A614846AD
:20B8C00081F84031FFF7CCFE9AF904305A1C00F09A80DEB23246CDE902794F4DF3B2934624
:20B8E000012B62D806EB4601890073004B4C019308315FFA88F902E01C34AC4255D0237890
:20B90000012BF9D163784B45F6D160580028F3D010F0C0FA009B07461BB1A0F10901072923
:20B9200047D909F10102D2B21321384610F09CFA00283AD0BB46DDE90127324404EB820412
:20B940000BF1FF325142E068354CDDF80C904FF02C0502FB05F501F0070102F0070258BF7B
:20B960004A42611904F59C742544C1F844017D61584681F84021FFF773FEB9F1000F3DD0CE
:20B98000BBF1000F1BD02846FCF766FD3869FCF763FD3846FCF730FD00231A462149584620
:20B9A000FFF778FE01233B731CE70136F3B29B4596D2DDE90279B9F1000F1FD01A4C09F1D9
:20B9C000FF332C2202FB0340002438617C61FCF743FD3846FCF710FD2346144922464846A0
:20B9E000FFF758FE01233B73FCE60136F2B29345BFF41DAF029F4FF0000965E7002200239B
:20BA0000C7E90423EEE601231A46002663E700BFF80C0020F81500209C600508505E0508B3
:20BA2000880100209D9C0008C0020020159D0008064A136851690B4003F00103536123B131
:20BA4000034BD3F83407036818477047003C0140F80C0020064A136851690B4003F00203A8
:20BA6000536123B1034BD3F83807036818477047003C0140F80C0020064A136851690B40F4
:20BA800003F00403536123B1034BD3F83C07036818477047003C0140F80C0020064A1368DB
:20BAA00051690B4003F00803536123B1034BD3F84007036818477047003C0140F80C002079
:20BAC000064A136851690B4003F01003536123B1034BD3F84407036818477047003C0140A6
:20BAE000F80C0020F8B50C4B1D685A69154005F478755D617DB1094F0126B5FA85F4C4F153
:20BB00001F0407EB840306FA04F4D3F8340703689847A543F1D1F8BD003C0140F80C002041
:20BB2000F8B50C4B1D685A69154005F47C455D617DB1094F0126B5FA85F4C4F11F0407EB4D
:20BB4000840306FA04F4D3F8340703689847A543F1D1F8BD003C0140F80C0020F0B5054626
:20BB600083B0A0B307681D4B144607F13F4202F57E0203EB92230E4693F8A40444F0B4F814
:20BB8000A988B1FA81F3C3F11F03C3F3CC0207EB820203F00703156A4FF00F0C9B009C4038
:20BBA0000CFA03F325EA03031362136A1C431462C6F30013C6F34112CDE900323846C6F3B6
:20BBC000810306F0030244F0CDFF03B0F0BD034B93F8A30444F088F82B68FFDEE44F0508A2
:20BBE00000B1BBE7704700BF2DE9F047684E06EB0013D3F88849002C76D093F89079054688
:20BC00004FEA0018384644F06FF807F01F027F090123032F03FA02F372D0042F6BD0022FF1
:20BC200064D006EB0803013593F88C09FFF7B0F8EDB2824610B11223C571837106EB08035D
:20BC400093F88D09FFF7A4F8814610B11323C571837106EB080393F88E09FFF799F8074657
:20BC600010B11423C571837106EB0803504693F88F594A212A46FFF7B3FF2A4648462A21D1
:20BC8000FFF7AEFF2A460A213846FFF7A9FF414B9C423AD0404B9C4242D0404B9C424AD0D8
:20BCA0003F4B9C4252D03F4B9C425AD03E4B9C4262D0A38823F003031B041B0CA380238877
:20BCC00003F4415343F4457343F003032380A38B23F400631B041B0C0722A3832282238882
:20BCE0009BB243F040032380BDE8F0872F4A516A0B43536295E72D4A11690B43136190E7E5
:20BD00002A4A116A0B4313628BE703F584335A6A42F480525A625A6A22F480525A62C8E7B1
:20BD200003F500331A6A42F480421A621A6A22F480421A62BDE703F5FE331A6A42F400423F
:20BD40001A621A6A22F400421A62B2E703F582335A6A42F400525A625A6A22F400525A62D9
:20BD6000A7E703F568435A6A42F480125A625A6A22F480125A629CE703F564435A6A42F406
:20BD800000125A625A6A22F400125A6291E700BFF80C00200030014000380040003C00406D
:20BDA00000340140005001400054014000380240431C00F03B812DE9F04F2C23DFF84C8418
:20BDC00000FB03F385B058F803A0064608EB0302BAF1000F04D094682CB194F9063013B118
:20BDE00005B0BDE8F08F2C2303FB0683D3F80CB0BBF1000F03D09BF90630002BF0D12C237A
:20BE000006FB03F31833002208EB0301751CDAF8049048F80320EDB2C1E90122C1E9032232
:20BE2000002C00F080811523E571A3719AF82800BBF1000F00F0658116238BF806308BF883
:20BE4000075043F051FFB9F804302268A08823F440731B041B0CA9F80430DBF800301083F6
:20BE6000BBF804201A8311212046FEF7DBFE11215846FEF7D7FE0927332524B9D1E0013DFA
:20BE800006D043F0D5FE2368A28819690A42F6D05A8343F071FE2368A2881A8343F06CFE0F
:20BEA000013FE9D1002C00F0EB80332503E0013D06D043F0BDFE2368A28819690A42F6D07B
:20BEC0005A8343F059FEBBF1000F00F00081DBF80030BBF804205A8343F04EFE2368A288E4
:20BEE0001A8343F049FEDBF80030BBF804201A8343F042FE2368A2881B691A4240F0978065
:20BF00002C2303FB0683997C1A7C002940F09A8020461221FFF722FE12212C2303FB068375
:20BF20005A7C5846FFF71AFEB24B994500F01581B14B994500F01C81B04B994500F023814A
:20BF4000B9F8043023F440731B041B0CA9F80430B9F800302C2202FB06829BB243F00103DF
:20BF6000948AA9F80030B9F804504FF47A73684603FB04F425F03F053FF05EFA0299A04B93
:20BF80002D04A3FB01232D0C45EA9345A9F80450B9F8002022F001021204120CA9F800209E
:20BFA000984A980C9442034652DC6200B1FBF2F292B20133042A38BF0422A9F82030A9F867
:20BFC0001C20B9F800309BB243F00103A9F80030B9F8003023F4816323F002031B041B0CB5
:20BFE0004FF4804143F48063A9F80030A9F80810B9F8003023F080031B041B0C0022A9F819
:20C0000000309AF82A00114644F088FD00229AF82900114605B0BDE8F04F44F07FBD43F0B4
:20C0200007FE013DFBD143F0A7FD37E770472C23DBF8002003FB068312699A7C002A00F0D1
:20C04000AD801A7C32212046FFF788FD322164E704EB4404B1FBF4F18AB2C1F30B0109B9C5
:20C0600042F0010268494FF4967300FB03F3A1FB03139B09013342F40042A9F820309EE725
:20C08000332401E043F0D4FD013CFBD143F074FDBBF1000F00F08880DBF80030BBF804202A
:20C0A0005A8343F069FD43F067FDDBF80030BBF804201A8343F060FD2C2303FB06839A7C80
:20C0C000002A18BF32215A7C08BF122129E743F053FD2368A2881A8343F04EFD43F04CFD5D
:20C0E0002368A2881B691A4265D12C2303FB0683997C1A7C00296CD020463221FFF72EFDB5
:20C1000012E743F0F1FDB9F80430A28823F440731B041B0CA9F80430236811211A83204651
:20C12000FEF780FDA7E69AF82800BBF1000F55D016238BF806308BF8075043F0D5FDB9F8E4
:20C140000430BBF8042023F440731B041B0CA9F80430DBF800301A8389E603F5F2331A6A3F
:20C1600042F400121A621A6A22F400121A62E7E603F5F0331A6A42F480021A621A6A22F499
:20C1800080021A62DCE603F5EE331A6A42F400021A621A6A22F400021A62D1E61A7C2046C3
:20C1A0001221FFF7DBFCB7E643F0E6FC43F0E4FC43F0E2FCB8E62C2303FB068320469A7CB9
:20C1C000002A18BF32211A7C08BF1221FFF7C6FCAAE620461221FFF7C1FCA5E643F084FDA8
:20C1E000B9F8043023F440731B041B0CA9F8043041E600BF0054004000580040005C0040C7
:20C2000083DE1B43A0860100D34D6210F80C00202DE9F0410646FEF7D7F8104F2C24054631
:20C2200004FB067442F20F7804E0FEF7CDF8401B404507DC637E002BF7D1207E80F0010086
:20C24000BDE8F081B7F8B839013330469BB2A7F8B839FFF7ADFD0020BDE8F081F80C0020A7
:20C26000B0F1FF3F61D02DE9F04F022883B0044612DC2F4F2C2600FB06F69946BB19D3F87F
:20C2800004B0BBF1000F07D00D46597E0193924601F0FF02009219B1002003B0BDE8F08F7D
:20C2A000FEF792F82036019B009A6D00EDB28046B8199D7601210C9D83F81BA05A779977DB
:20C2C000BD51456083F81C9059761A76BBF8043099051ED4BBF80030DA0513D442F20F754D
:20C2E00005E0FEF771F8A0EB0803AB4213DCBBF800309B05F5D4BBF800309BB243F48073E3
:20C30000ABF80030BBF804309BB243F44073ABF804300120C1E7B7F8B83901339BB2204605
:20C32000A7F8B839FFF744FDB6E70020704700BFF80C00202C2330B500FB03F3254DEA1846
:20C34000EB585C68A38A85B09BB20393039B13F4706F1CBF01231376039B13F4E06F0CD1B4
:20C36000A38A2C2223F4706302FB00551B041B0C0022A3826A7605B030BD238BA38823F407
:20C3800080631B041B0CA380039B9A05E8D423889B05E5D42388D9050FD52388DA05FCD48D
:20C3A00023889BB243F40073238023889B05FCD40190FFF7FDFC0198D2E723889BB243F41C
:20C3C00000732380A38823F440731B041B0CA380C6E700BFF80C00200020ABE70120A9E7F6
:20C3E0000220A7E770B590F871301D09013D052D044611D81C4E06EB450203F00F03B2F825
:20C40000F41341FA03F2D20706D590F87220012AD0B205D0012070BD94F872300120FAE717
:20C42000984001382E44084048F0C8FD96F83C3E0E4A034402EBC30552F83320AB8810698F
:20C440001840E8D0E36E002284F8722093F8212002212846FFF782FB226E93899BB243F04F
:20C4600008039381D6E700BFE44F0508040E0020F8B50E4C94F8307A9FB104F5A164C7F16C
:20C4800009070925013D0ED0A6683079FEF780FC217DF27908B1FFF761FBAF4204F18C0490
:20C4A000F0D10120F8BDAB68FFDE00BF04000010094BD3F8BC29D3F8C01940F22A400023BB
:20C4C00050604B620B889BB243F001030B80136843F0010313607047F80C002010B41D4B31
:20C4E0001D48196C1D4A41F08051012485B0196404625321FF24CA205462506251625B6F46
:20C50000DB0017D416480423002102910290029A1A440292029A04331C2B1160F5D1039117
:20C520000390039B0393039B0E4A1A6005B05DF8044B70470A4B002201920193019B0193E6
:20C54000019A084B12689A42DCD105B05DF8044B704700BF0038024000000E4200280040E9
:20C5600050280040316665422DE9F043046ED0F80890A38923F400531B0407461B0C91B040
:20C58000A38190F805803D79C8F3800005F001064FEA0822B30015F002054FEA003002F4FC
:20C5A000806218BF43F0080302431A43238A4FEA08319BB223F4405301F400511943218287
:20C5C000A38923F4B05323F00C031B041B0C1343A381A38A23F440731B041B0CA38201A828
:20C5E0003EF02AFF684B9C4205D003F580639C4201D0039B00E0049BA2896449A0891204C0
:20C6000003EB83034CBF4FEA49094FEA890903EB8303B3FBF9F3A1FB03C252094FF0640CCC
:20C6200000040CFB12334FEA021200F193801B013233A1FB0313C3F343131A4392B22281D6
:20C6400097F93800FEF7CCFB30B10368828818F0010F14BF1A835A8318F0080FA38A73D00C
:20C660009BB243F00803A382A3899BB243F40053A381002E2FD0FE6B002E78D00023CDE9FE
:20C680000833CDE90C33CDE90E33049306937B6C0193FB6D0293FB6805937B6903934FF413
:20C6A00080714FF48033CDE90A1330464FF4806307933EF00DFF01A930463EF09FFF3368C9
:20C6C00043F001033360A38A9BB243F04003A38273689BB27B65002D33D03E6C002E41D05A
:20C6E000BB6C0193BB6D02933B690593402304934FF48033002530460B934FF4806307939D
:20C70000CDE90855CDE90C55CDE90E55039506950A953EF0DDFE01A930463EF06FFF736963
:20C7200043F080037361336843F0160333607560A38A9BB243F08003A382E36843F040030A
:20C74000E36011B0BDE8F08323F008031B041B0CA38289E7DB003233A1FB0313C3F34213C7
:20C760001A436BE7E36843F08003E360E5E74FF6DF732380E36843F02003E360E36843F05E
:20C780001003E360A7E700BF001001401F85EB51EFF31183502282F31288016C0A68D20716
:20C7A00003D5DBB283F3118870474A6892B230B4A2B9456A846AA5421FD0846A85692C445A
:20C7C000CC60456A846AA54211D8846A82620269121B002492B280F864404A600A6842F084
:20C7E0000102DBB20A6083F3118830BC7047426A846A121B446A8462EBE7012280F8642041
:20C80000DBB283F3118830BC704700BF70B5037DC66902681F2B054640D95068203B2021DA
:20C82000994008422CD0D16010219940D1605168D940C80752D43046FFF7AAFF96F864306F
:20C84000C3B196F87230022B14D096F872308BB996F87100FEF79CFA326E938923F008034B
:20C860001B0401211B0C938186F8721010B12021FEF7D8F92B7D2A681F2B194614D9203B49
:20C88000506808219940084200D0D1605068042101FA03F3184200D0D36070BD106820247F
:20C8A0009C4020420DD11946106808238B40184200D09360106804238B401842EDD09360FE
:20C8C00070BD10219940946091601168D940C907B1D5012101FA03F39360ACE7012101FA9E
:20C8E00003F3D360A7E700BFBFF34F8F0549064BCA6802F4E0621343CB60BFF34F8F00BF59
:20C90000FDE700BF00ED00E00400FA0508B5002103203EF0F5FE72B6FFF7E6FF154C08B561
:20C92000D4F8C43994F8CA09ABB91420FEF7F6F800BFD4F8C4395BB11A689B88116994F815
:20C94000CA290B4012B91BB1FFF7E0FF002BFBD0FCF7E8FDECE719689A880B69134020B151
:20C96000002BE2D10B691340FAE7002BDDD00B691340FAE7F80C002008B572B6FFF7B4FFFF
:20C9800000B583B00D49002200920091009B0C330093009B1B68012B02D003B05DF804FB84
:20C9A00001920191019B06490C330193019B1A600B6883F308884B689847FEE750280040D6
:20C9C0000000FF1F38B5FFF789FDFFF7D9FF01203EF0A6FE6D4A936823F003039360936856
:20C9E00013F00C0FFBD113686849A0B943F00103136041F2883302E0013B00F0C5800A686B
:20CA00009507F9D5624C00220823C4F8CC29C4F8D03902251EE043F48033136041F28833CB
:20CA200002E0013B00F0B0800A689403F9D5584C584B594DB0FBF5F5B0FBF3F0B5EB400FE2
:20CA400018BF28464FF48003C4F8CC39C4F8D009B5FBF0F50220C4F8D4593EF061FE03281D
:20CA60000DD84E4B03EBC0039988DA88C4F8DC195B88C4F8E029B3FBF5F3C4F8D839434BBA
:20CA800047491A6C42F080521A640A6842F440420A609A689A609A6842F400429A609A68F8
:20CAA00042F4A0529A60D4F8CC19D4F8D0290A43D4F8D81942EA8112D4F8E01942EA0162C1
:20CAC000D4F8DC194908013942EA01425A601A6842F080721A601A689201FCD5314A40F22E
:20CAE00005711160996821F003019960996841F00201A2F580629960936803F00C03082B69
:20CB0000FAD12949D823B3FBF5F39B0143F000530120C2F884308866FBF782FF234D1B4B5F
:20CB2000234AEA60234A596FAA605A6B224922F080025A635A6F42F080725A671A6B42F415
:20CB4000CE021A635A6B5A639A6B9A631A6C0A431A64596C194A0A435A64FCF73FFD184AEF
:20CB6000D4F80831A2FB03239B09013BB3F1807F09D24FF0E022F02053610021072385F8C2
:20CB800023009161136138BD014CC7E700380240F80C002080841E0040420F009C600508C2
:20CBA00000700040003C02400000474200ED00E00005FA0500000020FFC9FE36335F070038
:20CBC000D34D6210104BDA68D243C2F30222C2F1040301214FF00F0CDBB201FA03F34CFA3E
:20CBE00002F210B40A40094CDBB213431B012218DBB282F80033430900F01F00814044F813
:20CC000023105DF8044B704700ED00E000E100E030B50068154C164D85B00139002389B21A
:20CC2000A042ADF80C30ADF806308DF80E300291D5F808310FD00F4988420CD001F5804166
:20CC4000884208D001F58061884204D001F58061884218BF5B08B3FBF2F301A9013BADF8C4
:20CC600004303EF06DFD05B030BD00BF00040140F80C00200000014001490248FCF77EBE1A
:20CC8000041100200000014010B5064C064804F20C41FCF773FE04F5B3610448BDE81040C4
:20CCA000FCF76CBEF80C0020000001400044014002494FF08040FCF761BE00BF30110020F1
:20CCC00001490248FCF75ABE5C1100200004004001490248FCF752BE88110020000800404C
:20CCE00001490248FCF74ABEB4110020000C004001490248FCF742BE38120020000401403E
:20CD000010B5064C064804F5A861FCF737FE04F21C610448BDE81040FCF730BEF80C0020CB
:20CD200000040140001C004001490248FCF726BE641200200040014001490248FCF71EBE6D
:20CD4000BC1200200048014001490248FCF716BEE81200200018004001490248FCF70EBE3C
:20CD6000401300200020004010B50C2935D8DFE801F091343434633434340734343435001D
:20CD8000038C5488B2F80CE023F480731B041B0C0384038CB0F804C0818B21F073014EEAF7
:20CDA000040E0904148823F40073090C1B042143764C1B0C43EA0E23A0421FFA8CFC9BB27F
:20CDC00000F0948004F58064A04200F08F809268A0F804C08183C263038410BD038C548853
:20CDE000B2F80CE023F480531B041B0C0384038CB0F804C0818B21F4E6414EEA040E09044C
:20CE0000148823F40053090C41EA04211B045F4C1B0C43EA0E33A0421FFA8CFC9BB289B23D
:20CE20007ED004F58064A0427AD09268A0F804C081830264038410BD038C5488B2F80CE086
:20CE400023F010031B041B0C0384038CB0F804C0018B21F4E6414EEA040E0904148823F016
:20CE60002003090C41EA04211B04484C1B0C43EA0E13A0421FFA8CFC9BB289B26CD004F5C2
:20CE80008064A04268D09268A0F804C001838263038410BD038C5488B2F80CE023F0010369
:20CEA0001B041B0C0384038CB0F804C0018B21F073014EEA040E0904148823F00203090C79
:20CEC0001B042143314C1B0C43EA0E03A0421FFA8CFC9BB22CD004F58064A04228D0926870
:20CEE000A0F804C001834263038410BDD489B2F810E023F4006343EA0423548A2CF4405CFA
:20CF00004EEA040E4CEA0E1C94884FF6FF3E03EA0E0E4EEA042E1FFA8CFC1FFA8EF356E7DE
:20CF2000148A2CF4804C4CEA841C1FFA8CFC7CE7D489B2F810E023F008032343548A2CF414
:20CF4000407C4EEA040E948823F004034CEA0E0C1FFA8CFC2343C2E7D489B2F810E023F08B
:20CF6000800343EA0413548A2CF4406C4EEA040E4CEA8E0C94884FF6BF7E03EA0E0E4EEA47
:20CF8000041E1FFA8CFC1FFA8EF37CE7000001402DE9F04FAC4BDFF8CC9293F8E638AB4C6F
:20CFA000AB4D93B05F1E0293FBB200930023CB460193DFF8B4A2DAF80070BB0AA3F58013BD
:20CFC000522B00F2FF80234493F800340D2B00F2F98015F90380029B012B00F0FA80029B39
:20CFE000022B02D1B8F1080F6DD10026314640460FF032FE0FF0BEFE90F9003013B1542B2A
:20D0000040F0EC800436B6B2102EEFD1019B002113B34A460BE0234493F800340D2B0DD893
:20D02000EB5643450DD002F580725A4512D0906803689B0AA3F58013522BECD900234345C0
:20D04000F1D143799AF8050098423CD002F580725A45ECD1002936D15046FBF713FAC3B256
:20D06000022B9AF805E000F2FF8200F1010C774A0CEB4C0C4FEA8C0C02F57D7003E02C3295
:20D08000824200F0F18213689F42F8D113797345F5D152F80C30002BF1D06E48002103E00E
:20D0A000102900F12C000ED042689A428C4601F10101F5D1684B2C2202FB0C3C9CF95831C6
:20D0C000002B00F09B82654B0AF11C0A9A457FF472AF019B0133042B01930BF5807B7FF4D3
:20D0E00068AF5F4A92F8303A013302F5816802934FF0010B029B9B4561D0534BD8F80C6000
:20D1000093F8E42998F810300193002E57D0544BD6F800A05868B38800930AF13F4505F5AA
:20D120007E0500284FEA952561DD002302E00133834259D01C0259F80410A942F7D14C4426
:20D14000019B88F81030009BC8F80C60B3FA83F5C5F11F034FF00302C8F80430C8F818405F
:20D16000B27186F807B0E16C606C5E0001220327B74002FA06F63143E16439490E78384368
:20D1800002FA03F36064276DD4F8A00099B2002E00F027823B432365009BAAF81830FBF74A
:20D1A000ABF920460BF1010BFBF734FB40F20113BBF1090FA8F81C3008F120089AD113B0F7
:20D1C000BDE8F08F009B012B7FF67DAF4FF000080BE7B8F1010F3FF408AF74E7019B0121CE
:20D1E000002B7FF416AF6EE7042B00F00A821C4B03EB00230102059119690391002900F08C
:20D2000026826C1C0492E4B24FF054029D6083F8042183F80541124B01305860039B5D7905
:20D220001F6806951846FBF72DF9C3B2022B00F21B8200F1010C0CEB4C0C044B049A4FEAB2
:20D240008C0C0021AE4617E0F80C0020E44F0508BCA90508C002002088010020B8610508A3
:20D26000040000100C000010BC6005080131172903F12C0300F0F8811D68AF42F6D11D7984
:20D280007545F3D153F80C50002DEFD02C2300EB400001FB03F37649764F03EB80030B44CD
:20D2A00005981969744B0A910344C3E9065194460023394604E0102B01F12C013FF47FAF90
:20D2C0004A68AA42184603F10103F4D16B4B04952C2101FB0031624691F95831002B7FF473
:20D2E0006EAF059D664881F85941EB1103EB252303EB031300EB83038C2408932B1204FB80
:20D3000003F300F54C7000EB430009905A4843190898C3F8A8000998C3F8F000542081F865
:20D3200058013321C3F8AC100399C3F8F440C3F80CA008685349544B07908842D3F80831C7
:20D3400009EB050410D0A1F5806188420CD001F58041884208D001F58061884204D001F50F
:20D360008061884218BF5B08062A00F05681072A4648474A474918BF1146474A18BF024613
:20D380000598B3FBF2F2B3FBF1F33B49079D0144013A92B2013BA1F8B030A1F8682000F119
:20D3A00054010023A4F85C30284649F80130A26549443EF0C5F90023ADF838302B880699EB
:20D3C0009BB243F080032B802B8823F001031B041B0C2B80314B0D9328464FF480730225FD
:20D3E000CDE910530DAA0A230F93FFF7BDFC039B1879002840F01481079A049D13889BB299
:20D4000043F001031380002004E0102807F12C0700F0FE807B689D42024600F10100F4D1AC
:20D42000049516491E4F049DDDF81CC02C2303FB02131C4AD3F838311B498B4214BF4FF4F2
:20D4400080034FF40013116B0B431363069A0C2A9CBF164B03EB4203059A98BFB3F8DC1061
:20D46000054B134488BF00219982002327E000BFE44F0508C00200200400001088010020BA
:20D48000E016002000040140F80C0020D0DD0600449508001055220040771B0060000100BF
:20D4A000F80E00100038024000600240DC600508944500F0D3800133042B00F0D28057F8E1
:20D4C0003320002AF4D16A4A04951546D2F8F02E0132C5F8F02E05EBC302079DC2F8F45E07
:20D4E000DB003B4400279A8811439980902261492346FEF7CFF804980A9D036843F01003A7
:20D500000360089BE3664FF48063E367059B656603F164014FF400320423C4E92323402396
:20D520003322C4E91C320AF118024FF4805CA2664FF48042C4E920C24944C4E92577A767E7
:20D54000C4F88870C4F89C703EF058F8049A059B1068E061506920625068606203F1AC0184
:20D560009068A0624FF48063D068C4F8C4300423C4F8D830099BC4F8B4304FF44033C4F802
:20D58000D4308C23C4F8AC50C4F8BC30049DE0620AF110034FF48042C4F8B0304FF4006340
:20D5A000C4F8C830C4E937774944C4F8CC20C4F8B870C4F8C070C4F8D070C4F8E4702846DD
:20D5C0003EF01CF82B6823636B6963636B68A363AB68E363EB6823642B6843F010032B60E6
:20D5E000AEE5C5F12F0502FA05F33B432365009BAAF81A303246FAF77FFFD2E5CBF808A024
:20D6000067E51D4A032382F8E53913B0BDE8F08F04954FF0FF32002003E71849184AAFE647
:20D62000FDF7B6FB0B9038B1039B0221DA79FEF795FA0B9B5422DA80079AB2F844306FEA9B
:20D6400043436FEA53439BB2A2F84430D4E60A4A022382F8E53913B0BDE8F08F0495DB00D4
:20D660003FE700239B88FFDE00235B68FFDE00BF0400001041850008F80C0020882A110016
:20D68000A0BB0D000C2911D8DFE801F02310101019101010111010100700838B23F40063E0
:20D6A0001B041B0C43EA02239BB283837047838B23F008031B041B0C1A4382837047038BAF
:20D6C00023F400631B041B0C43EA02239BB203837047038B23F008031B041B0C1A430283DA
:20D6E000704700BF2DE9F04FDFF858A39AF8807099B01FB9002019B0BDE8F08F00222F216B
:20D7000038460FF08BFB80460028F3D0DFF838930568C9F8C059FDF7C1FE0028EAD0D0E91E
